:100000000C9487000C94A6000C94A6000C94A600F7
:100010000C94A6000C94A6000C94A6000C94A600C8
:100020000C94A6000C94A6000C94A6000C941D0839
:100030000C94A6000C94A6000C9406080C94A60040
:100040000C94A6000C94A6000C94A6000C94A60098
:100050000C94A6000C94A2010C94A6000C94A6008B
:100060000C94A6000C94A6000C94A6000C94A60078
:100070000C94A6000C94A6000C94A6000C94A60068
:100080000C94A6000C94A6000C94A60007634236BC
:10009000B79BD8A71A39685618AEBAAB558C1D3C19
:1000A000B7CC5763BD6DEDFD753EF6177231BF00DD
:1000B0000000803F08000000BE922449123EABAA17
:1000C000AA2ABECDCCCC4C3E00000080BEABAAAA72
:1000D000AA3E00000000BF000000803F00000000BA
:1000E00000084178D3BB4387D1133D190E3CC3BDF3
:1000F0004282AD2B3E68EC8276BED98FE1A93E4CA0
:1001000080EFFFBE01C4FF7F3F000000000011240C
:100110001FBECFEFD0E1DEBFCDBF11E0A0E0B1E068
:10012000E0E3FFE100E00BBF02C007900D92AA36AA
:10013000B107D9F711E0AAE6B1E001C01D92A53AD6
:10014000B107E1F70E947C080C94960F0C94000014
:100150004F925F926F927F928F929F92AF92BF92D7
:10016000CF92DF92EF92FF920F931F93CF93DF9383
:100170006B017C01EA0189010E94C209DC01CB010B
:100180005C01BE0140E050E00E94710C01151105B8
:1001900009F444C0882E992EFE01E80DF91D8EE267
:1001A0008083B801882777FD8095982F0E94F509F4
:1001B0009B01AC0160E070E080E291E40E940C0BD6
:1001C000762E672E582E492EB501882777FD80950B
:1001D000982F0E94F5099B01AC01C701B6010E944E
:1001E000F108A62EC72EB82FA92F272D362D452D65
:1001F000542DCA01B9012A2D3C2D4B2F5A2F0E9494
:10020000A90A0E94C209DC01CB010894811C911C3F
:10021000BE01680D791DA8010E94710CDF91CF917C
:100220001F910F91FF90EF90DF90CF90BF90AF9014
:100230009F908F907F906F905F904F90089587B1BF
:10024000806C87B917B886B1866886B90895369AE2
:1002500080EA8A95F1F7349BFECF349A24B135B108
:10026000822F932F089587B1806C87B917B886B114
:10027000856086B980E886B980EA8A95F1F7369A72
:100280003699FECF84B185B1089580EA8A95F1F759
:10029000369A3699FECF64B170E025B1922F80E096
:1002A000862B972BBC0180E090E00E94F309089513
:1002B000369A80EA8A95F1F7349BFECF349A84B15E
:1002C00085B195B184B1792F60E0680F711D8827E1
:1002D00077FD8095982F0E94F5092AE037ED43E2DB
:1002E00050E40E94A90A20E030E040E85AE30E946E
:1002F000A90A0E94C70970E080E090E00E94F3091B
:100300000895089597B18770987F982B97B93E9A72
:1003100080EA8A95F1F7369A3699FECF24B135B145
:10032000822F932F0895806487B985E38A95F1F72A
:100330000000369A349BFECF349A24B135B1822F17
:10034000932F08951F920F920FB60F9211248F933F
:1003500085B1809374018F910F900FBE0F901F9005
:100360001895806487B985E38A95F1F70000369A7D
:10037000349BFECF349A84B195B1392F20E0280FF9
:10038000311D822F932F0895BC0180E090E00E94E0
:10039000F3090E94C209862F972F0895EF92FF92CA
:1003A0000F931F939C01B901882777FD8095982FA3
:1003B0000E94F50920E030E040EA50E40E94A90ADA
:1003C00020E030EC4FE754E40E945A0929E334EB73
:1003D00040E251E40E945A0920E43AEC40E15FE334
:1003E0000E94F208F62E072F182FE92E60E070E029
:1003F00080EE90E42F2D302F412F5E2D0E94F108CA
:1004000020E030E04AE754E40E945A0922E838EA42
:100410004BE758E30E94F1089B01AC016F2D702F50
:10042000812F9E2D0E945A0929ED3EEC47E250E4AF
:100430000E94A90A26E636E643E853E40E94F10842
:100440001F910F91FF90EF9008958F929F92AF921E
:10045000BF92CF92DF92EF92FF920F931F93DF93A1
:10046000CF93CDB7DEB7C456D0400FB6F894DEBFF9
:100470000FBECDBF8FEF90E7A2E081509040A0402B
:10048000E1F700C0000080E00E94B10100D000D080
:1004900000D0EDB7FEB731960F2EF5E1EF2EFF2419
:1004A000F02DEC0EFD1EADB7BEB71296FC92EE928B
:1004B000119780E091E093838283CE01019695832A
:1004C00084830E94920C0F2EF2E48F2EF7E09F2E71
:1004D000F02D8DB79EB706960FB6F8949EBF0FBE4F
:1004E0008DBFF40109950F2EF4E2CF2EF7E0DF2E39
:1004F000F02D81E090E061E070E0F60109950F2EAB
:10050000F3ECAF2EF7E0BF2EF02D89E091E0F5017E
:10051000099582E090E061E070E0F6010995C7017D
:10052000F50109958E01075C1F4F6BEC71E089E6C0
:1005300093E4A80124E030E00E94A80082E090E06B
:1005400061E070E0F6010995C801F50109958FEFAA
:1005500095EAAEE081509040A040E1F700C0000075
:10056000ADB7BEB718970FB6F894BEBF0FBEADBFFC
:10057000EDB7FEB731968E01035B1F4F12961C93A9
:100580000E93119782E191E09383828380E090E063
:10059000A0ECBFE384839583A683B7830E94920C6B
:1005A0008DB79EB708960FB6F8949EBF0FBE8DBF4D
:1005B000F401099581E090E061E070E0F6010995B1
:1005C00089E191E0F501099582E090E061E070E059
:1005D000F6010995C801F50109958FEF95EAAEE09E
:1005E00081509040A040E1F700C000008E2D9F2D6B
:1005F000CC59DF4F0FB6F894DEBF0FBECDBFCF9101
:10060000DF911F910F91FF90EF90DF90CF90BF90FF
:10061000AF909F908F9008955F926F927F928F928C
:100620009F92AF92BF92CF92DF92EF92FF920F9381
:100630001F93CF93DF937B018C01642E552E2223D1
:1006400041F0273160F4822E99240894811C911C7A
:100650000BC00F2EF7E08F2E9924F02D05C00F2E22
:10066000F7E18F2E9924F02DC801B70120E030E08A
:10067000A9010E94560988235CF4A62CB52C8DE2B2
:10068000D5018D935D0117FB109517F9109502C0E8
:10069000A62CB52CC801B70120E030E0A9010E94CA
:1006A000A50A18166CF4C801B70120E030E040E854
:1006B0005FE30E945609882384F0CC24DD2402C025
:1006C000CC24DD24C801B70120E030E040E251E451
:1006D0000E94A50A8823DCF431C0CC24DD24C801A3
:1006E000B70120E030E040E251E40E94A90AE62E82
:1006F000F72E082F192F0894C108D10820E030E008
:1007000040E85FE30E94560988234CF3DBCFC80121
:10071000B70120E030E040E251E40E945A09E62EA1
:10072000F72E082F192F0894C11CD11C20E030E0AF
:1007300040E251E40E94A50A88234CF78C0C9D1CD2
:10074000B2E08B1691048CF060E070E080E89FE3EB
:10075000C1E0D0E020E030E040E251E40E945A09DC
:100760002196C815D905B1F704C060E070E080E8B3
:100770009FE320E030E040E05FE30E94A90AA80187
:1007800097010E94F208F62EE72E082F192F20E07D
:1007900030E040E251E40E94A50A88233CF008942E
:1007A000C11CD11CFF24EE2400E81FE3DD2034F53A
:1007B000F50180E381938EE2D50111968C93119718
:1007C000CF010196992014F4C818D908BFEFCB16B1
:1007D000BFEFDB0694F496010894A11CB11CAC1881
:1007E000BD08FC0140E34193EA15FB05E1F759011F
:1007F000A094B094A80EB91E01C05C01181419048D
:10080000A4F5C0E0D0E00F2EFEE27F2EF02D6F2D7C
:100810007E2D802F912F0E94C209862F805DF501C9
:1008200081935F01CC15DD0519F4DF017D925D0137
:100830002196C815D905C9F0882777FD8095982F8E
:100840000E94F5099B01AC016F2D7E2D802F912F09
:100850000E94F10820E030E040E251E40E94A90A41
:10086000F62EE72E082F192FD2CFF5011082862DF4
:10087000952DDF91CF911F910F91FF90EF90DF9019
:10088000CF90BF90AF909F908F907F906F905F9030
:1008900008956115710509F0A0C0009711F4D8986A
:1008A00008958130910511F4D99808958230910509
:1008B00011F4DA9808958330910511F4DB980895C6
:1008C0008430910511F4DC9808958530910511F478
:1008D000DD9808958630910511F4DE9808958730EB
:1008E000910511F4DF9808958A30910511F4C098AC
:1008F00008958B30910511F4C19808958C309105BD
:1009000011F4C29808958D30910511F4C39808959B
:100910008E30910511F4C49808958F30910511F42B
:10092000C59808958031910511F4C69808958131D4
:10093000910511F4C79808958431910511F4A89890
:1009400008958531910511F4A9980895863191058E
:1009500011F4AA9808958731910511F4AB98089580
:100960008831910511F4AC9808958931910511F4FD
:10097000AD9808958A31910511F4AE9808958B31A0
:10098000910511F4AF9808958E31910511F4909866
:1009900008958F31910511F4919808958032910551
:1009A00011F4929808958132910511F49398089565
:1009B0008232910511F4949808958332910511F4CF
:1009C000959808958432910511F49698089585328A
:1009D000910509F0A0C097980895009711F4D89A4E
:1009E00008958130910511F4D99A089582309105C6
:1009F00011F4DA9A08958330910511F4DB9A089581
:100A00008430910511F4DC9A08958530910511F434
:100A1000DD9A08958630910511F4DE9A08958730A5
:100A2000910511F4DF9A08958A30910511F4C09A66
:100A300008958B30910511F4C19A08958C30910579
:100A400011F4C29A08958D30910511F4C39A089556
:100A50008E30910511F4C49A08958F30910511F4E8
:100A6000C59A08958031910511F4C69A089581318F
:100A7000910511F4C79A08958431910511F4A89A4B
:100A800008958531910511F4A99A0895863191054B
:100A900011F4AA9A08958731910511F4AB9A08953B
:100AA0008831910511F4AC9A08958931910511F4BA
:100AB000AD9A08958A31910511F4AE9A08958B315B
:100AC000910511F4AF9A08958E31910511F4909A21
:100AD00008958F31910511F4919A0895803291050E
:100AE00011F4929A08958132910511F4939A089520
:100AF0008232910511F4949A08958332910511F48C
:100B0000959A08958432910511F4969A0895853244
:100B1000910509F4979A08950F931F93082F182FA2
:100B200080FF07C080E090E061E070E00E9449042F
:100B300006C080E090E060E070E00E94490411FF90
:100B400007C081E090E061E070E00E94490406C0C7
:100B500081E090E060E070E00E94490412FF07C06D
:100B600082E090E061E070E00E94490406C082E00B
:100B700090E060E070E00E94490413FF07C083E04A
:100B800090E061E070E00E94490406C083E090E0DC
:100B900060E070E00E94490414FF07C088E190E023
:100BA00061E070E00E94490406C088E190E060E0E6
:100BB00070E00E94490415FF07C089E190E061E000
:100BC00070E00E94490406C089E190E060E070E0B6
:100BD0000E94490416FF07C08AE190E061E070E0DE
:100BE0000E94490406C08AE190E060E070E00E9443
:100BF000490400233CF48BE190E061E070E00E9446
:100C0000490406C08BE190E060E070E00E94490476
:100C10001F910F9108951F93182F86E190E060E0D7
:100C200070E00E944904812F0E948C0587E190E0CA
:100C300061E070E00E9449048FE99FE00197F1F7BD
:100C400000C0000087E190E060E070E00E9449048D
:100C50008FE99FE00197F1F700C000001F91089510
:100C600081E00E940B060895813029F4862F805878
:100C70000E940B060895823021F4862F80540E9432
:100C80000B06089586E190E060E070E00E94490460
:100C900087E190E060E070E00E9449048FEF99EFF7
:100CA000A0E081509040A040E1F700C0000080E348
:100CB0000E940B06AFE1BEE41197F1F700C00000FF
:100CC00080E30E940B068FE99FE00197F1F700C0D7
:100CD000000080E30E940B06AFE3BCE91197F1F737
:100CE00000C0000088E30E940B068CE00E940B0607
:100CF00081E00E940B0686E00E940B0608951F9378
:100D0000182F86E190E061E070E00E944904812F95
:100D10000E948C0587E190E061E070E00E94490448
:100D20008FE99FE00197F1F700C0000087E190E0B4
:100D300060E070E00E9449048FE99FE00197F1F7BD
:100D400000C000001F910895CF93DF93EC018881CC
:100D5000882331F021960E947F0689918823D9F754
:100D6000DF91CF9108958CE10E940B06089588E1F0
:100D70000E940B060895CF93DF93C82FD0E0CE01D9
:100D800080FF07C088E190E061E070E00E944904C4
:100D900006C088E190E060E070E00E944904C1FF75
:100DA00007C089E190E061E070E00E94490406C05C
:100DB00089E190E060E070E00E944904C2FF07C052
:100DC0008AE190E061E070E00E94490406C08AE197
:100DD00090E060E070E00E944904C3FF07C08BE12F
:100DE00090E061E070E00E94490406C08BE190E071
:100DF00060E070E00E944904DF91CF9108951F9355
:100E0000182F86E190E060E070E00E944904812F95
:100E10000E94BB0687E190E061E070E00E94490417
:100E20008FE99FE00197F1F700C0000087E190E0B3
:100E300060E070E00E9449048FE99FE00197F1F7BC
:100E400000C000001F9108951F93813061F4162F98
:100E50001058812F82958F700E94FF06812F8F700E
:100E60000E94FF060DC0823059F4162F1054812FB6
:100E700082958F700E94FF06812F8F700E94FF065F
:100E80001F91089580E00E94FF0681E00E94FF0606
:100E9000089580E00E94BB068FEF99EFA0E081509B
:100EA0009040A040E1F700C0000083E00E94FF06F0
:100EB000AFE1BEE41197F1F700C0000083E00E94AB
:100EC000FF068FED9BEA0197F1F700C0000083E079
:100ED0000E94FF0682E00E94FF0682E00E94FF0659
:100EE00088E00E94FF0680E00E94FF068CE00E94DE
:100EF000FF0680E00E94FF0686E00E94FF0608953C
:100F00001F93182F86E190E061E070E00E94490491
:100F1000812F82958F700E94BB0687E190E061E08F
:100F200070E00E9449048FE99FE00197F1F700C04B
:100F3000000087E190E060E070E00E9449048FE9E2
:100F40009FE00197F1F700C00000812F8F700E9491
:100F5000BB0687E190E061E070E00E9449048FE900
:100F60009FE00197F1F700C0000087E190E060E0AA
:100F700070E00E9449048FE99FE00197F1F700C0FB
:100F800000001F910895CF93DF93EC01888188239F
:100F900031F021960E94800789918823D9F7DF914B
:100FA000CF91089581E00E94FF068CE00E94FF0629
:100FB000089581E00E94FF0688E00E94FF060895E0
:100FC0008FEF84BB0E94490781E061E00E94240703
:100FD00083E291E00E94C3070895DC01CB01609198
:100FE0009C0170E04AE050E00E94710C80919C01ED
:100FF0000895CF93DF93C5E7D1E0BE014AE050E00A
:101000000E94710C8C2FDF91CF9108951F920F9247
:101010000FB60F9211248F939F9380916E01909140
:101020006F01019690936F0180936E019F918F9154
:101030000F900FBE0F901F9018951F920F920FB632
:101040000F920BB60F9211242F933F934F935F9300
:101050006F937F938F939F93AF93BF93EF93FF9380
:101060000E94490781E061E00E94240781E391E04A
:101070000E94C3078FE99FE00197F1F700C00000CD
:1010800086B597B59093A4018093A3018EB58F7B0D
:101090008EBD10926F0110926E018091930190911C
:1010A00094010E94F90781E061E00E94240787E42F
:1010B00091E00E94C30782E061E00E94240785E777
:1010C00091E00E94C3078FED9EE20197F1F700C007
:1010D0000000FF91EF91BF91AF919F918F917F9110
:1010E0006F915F914F913F912F910F900BBE0F9099
:1010F0000FBE0F901F901895EF92FF920F931F93C2
:10110000DF93CF93CDB7DEB76A970FB6F894DEBF03
:101110000FBECDBF11BA11BA84E287BF81EC8EBD7C
:101120008FEF84BB80E487B983E886B98FEF96E7B9
:10113000A1E081509040A040E1F700C000000E9473
:10114000490710927301109272011092940110924B
:10115000930181E061E00E94240787E491E00E940E
:10116000C30782E061E00E9424078091930190917F
:1011700094010E94F90785E791E00E94C307AFED53
:10118000BEE21197F1F700C000008E010F5F1F4F04
:101190000F2EFEE5EF2EF1E0FF2EF02D80E00E94F5
:1011A00082010E94CE01A80127E00E940C030E9448
:1011B000420781E061E00E942407C7010E94C30743
:1011C00082E061E00E942407C8010E94C3078FEFFC
:1011D00095EAAEE081509040A040E1F700C00000E9
:1011E000DDCF5058BB27AA270ED075C166D130F08D
:1011F0006BD120F031F49F3F11F41EF45BC10EF46B
:10120000E095E7FB51C1E92F77D180F3BA17620768
:1012100073078407950718F071F49EF58FC10EF4DB
:10122000E0950B2EBA2FA02D0B01B90190010C01F6
:10123000CA01A0011124FF27591B99F0593F50F40E
:10124000503E68F11A16F040A22F232F342F442766
:10125000585FF3CF469537952795A795F04053955E
:10126000C9F77EF41F16BA0B620B730B840BBAF02E
:101270009150A1F0FF0FBB1F661F771F881FC2F799
:101280000EC0BA0F621F731F841F48F487957795AD
:101290006795B795F7959E3F08F0B3CF9395880F64
:1012A00008F09927EE0F979587950895D9D008F4FF
:1012B00081E008950CD00FC107D140F0FED030F08E
:1012C00021F45F3F19F0F0C0511139C1F3C014D1BE
:1012D00098F39923C9F35523B1F3951B550BBB27FD
:1012E000AA2762177307840738F09F5F5F4F220FAA
:1012F000331F441FAA1FA9F333D00E2E3AF0E0E8A3
:1013000030D091505040E695001CCAF729D0FE2FEE
:1013100027D0660F771F881FBB1F26173707480780
:10132000AB07B0E809F0BB0B802DBF01FF27935836
:101330005F4F2AF09E3F510568F0B6C000C15F3F85
:10134000ECF3983EDCF3869577956795B795F7951E
:101350009F5FC9F7880F911D9695879597F9089516
:10136000E1E0660F771F881FBB1F621773078407B2
:10137000BA0720F0621B730B840BBA0BEE1F88F7C1
:10138000E095089504D06894B111D9C00895BCD0F7
:1013900088F09F5790F0B92F9927B751A0F0D1F05E
:1013A000660F771F881F991F1AF0BA95C9F712C0E8
:1013B000B13081F0C3D0B1E00895C0C0672F782F5D
:1013C0008827B85F39F0B93FCCF386957795679554
:1013D000B395D9F73EF490958095709561957F4FC0
:1013E0008F4F9F4F0895E89409C097FB3EF4909566
:1013F0008095709561957F4F8F4F9F4F9923A9F0EE
:10140000F92F96E9BB279395F6958795779567957C
:10141000B795F111F8CFFAF4BB0F11F460FF1BC0C0
:101420006F5F7F4F8F4F9F4F16C0882311F096E953
:1014300011C0772321F09EE8872F762F05C0662301
:1014400071F096E8862F70E060E02AF09A95660FBA
:10145000771F881FDAF7880F9695879597F9089573
:10146000990F0008550FAA0BE0E8FEEF16161706B5
:10147000E807F907C0F012161306E407F50798F01D
:10148000621B730B840B950B39F40A2661F0232B36
:10149000242B252B21F408950A2609F4A140A695B2
:1014A0008FEF811D811D089597F99F6780E870E097
:1014B00060E008959FEF80EC089500240A941616CA
:1014C000170618060906089500240A941216130632
:1014D000140605060895092E0394000C11F48823C0
:1014E00052F0BB0F40F4BF2B11F460FF04C06F5FDC
:1014F0007F4F8F4F9F4F089557FD9058440F551FB2
:1015000059F05F3F71F04795880F97FB991F61F085
:101510009F3F79F087950895121613061406551FFC
:10152000F2CF4695F1DF08C0161617061806991F68
:10153000F1CF86957105610508940895E894BB275D
:1015400066277727CB0197F908958ADF08F48FEF94
:1015500008950BD0C0CFB1DF28F0B6DF18F0952387
:1015600009F0A2CFA7CF1124EACFC6DFA0F3959F41
:10157000D1F3950F50E0551F629FF001729FBB277A
:10158000F00DB11D639FAA27F00DB11DAA1F649F26
:101590006627B00DA11D661F829F2227B00DA11DD9
:1015A000621F739FB00DA11D621F839FA00D611D5F
:1015B000221F749F3327A00D611D231F849F600D80
:1015C000211D822F762F6A2F11249F5750408AF0B9
:1015D000E1F088234AF0EE0FFF1FBB1F661F771F45
:1015E000881F91505040A9F79E3F510570F05CCF85
:1015F000A6CF5F3FECF3983EDCF386957795679531
:10160000B795F795E7959F5FC1F7FE2B880F911D62
:101610009695879597F90895FA01EE0FFF1F30967A
:101620002105310599F16115710561F48038BFE339
:101630009B0749F168949038810561F08038BFEFCD
:101640009B0741F0992342F5FF3FE1053105210554
:1016500011F1E8940894E795D901AA2329F4AB2F56
:10166000BE2FF85FD0F310C0FF5F70F4A695E0F7CF
:10167000F73950F019F0FF3A38F49F779F930CD068
:101680000F9007FC905808953EF014CF60E070E092
:1016900080E89FE308954FE79F775F934F933F93D1
:1016A0002F939ED02F913F914F915F9152DF05C0B4
:1016B00019F40EF0F9CE42CFFDCE26DFC8F39638EE
:1016C000C0F707F80F92E8942BE33AEA48EB5FE79C
:1016D0004EDF0F920F920F924DB75EB70F92C0D0B0
:1016E000ECE8F0E016D04F915F91EF91FF91E59516
:1016F000EE1FFF1F49F0FE57E0684427EE0F441F1E
:10170000FA95E1F74195550B32D00F9007FE26C0B0
:101710000895DF93CF931F930F93FF92EF92DF9281
:101720007B018C01689405C0DA2EEF011EDFFE01FB
:10173000E894A5912591359145915591AEF3EF012E
:1017400062DDFE019701A801DA9479F7DF90EF904E
:10175000FF900F911F91CF91DF9108959B01AC01F4
:1017600060E070E080E89FE3A5CD9ECEACC0CCDE0B
:10177000E8F39923D9F3940F511DBBF391505040D6
:1017800094F059F0882332F0660F771F881F91502C
:101790005040C1F79E3F510544F7880F911D969523
:1017A000879597F908955F3FACF0983E9CF0BB2772
:1017B000869577956795B79508F4B1609395C1F7CD
:1017C000BB0F58F711F460FFE8CF6F5F7F4F8F4F6B
:1017D0009F4FE3CFB4CE0EF076C06CCE689464CE4B
:1017E00093DEC8F39923D1F3C6F3DF93CF931F930E
:1017F0000F93FF92C92FDD2788232AF02197660FC8
:10180000771F881FDAF720E030E040E85FEB9FE3C6
:10181000883920F0803E30F021968F77E3DCE4EBCE
:10182000F0E003C0DFDCE1EEF0E073DF8B01BE012E
:10183000EC01FB2E6F5771097595771F880B990B7B
:10184000D4DD28E132E741E35FE38FDEAF2D98017D
:10185000AE01FF900F911F91CF91DF91D4DC3BCE71
:10186000FA01DC01AA0FBB1F9B01AC01BF5728F492
:1018700022273327442750781FC0B75188F4AB2F55
:101880000024469537952795011CA395D2F3002097
:1018900069F0220F331F441FB395DAF30DD0A1CCAA
:1018A00061307105A0E88A07B94630F49B01AC01AC
:1018B0006627772788279078309621F02083318318
:1018C0004283538308959F3F31F0915020F48795D0
:1018D00077956795B795880F911D9695879597F998
:1018E0000895FB019F01E8944230C4F04532B4F4FE
:1018F0004A3029F497FB1EF4909581959F4F642FF1
:1019000077270E94820F805D8A330CF0895D819376
:10191000CB010097A1F716F45DE251931082C90143
:101920000C94E80E0F931F93DF93CF93CDB7DEB7E0
:101930002E970FB6F894DEBF0FBECDBF0D891E895E
:1019400086E08C831A8309838FEF9FE79E838D83C4
:101950009E01275E3F4FCE0101966F89788DA901C8
:101960000E94C20CEF81F885E00FF11F10822E96C5
:101970000FB6F894DEBF0FBECDBFCF91DF911F91A0
:101980000F9108952F923F924F925F926F927F92A4
:101990008F929F92AF92BF92CF92DF92EF92FF927F
:1019A0000F931F93DF93CF93CDB7DEB72C970FB66E
:1019B000F894DEBF0FBECDBF6C011B018A01FC0194
:1019C00017821682838181FFD1C12E010894411CA8
:1019D000511CF6019381F10193FD859193FF819153
:1019E0001F01882309F4BEC1853239F493FD859126
:1019F00093FF81911F01853229F490E0B6010E9486
:101A0000F80EE7CFEE24FF2420E02032B0F48B3232
:101A100069F08C3228F4803251F0833271F40BC0BB
:101A20008D3239F0803349F421602CC0226024606B
:101A300029C0286027C0206125C027FD2CC0382F71
:101A400030533A3098F426FF08C08E2D880FE82EC8
:101A5000EE0CEE0CE80EE30E15C08F2D880FF82E5D
:101A6000FF0CFF0CF80EF30E20620CC08E3221F436
:101A700026FD78C1206406C08C3611F4206802C0AF
:101A8000883649F4F10193FD859193FF81911F01FF
:101A9000882309F0BACF982F9554933018F09052BC
:101AA000933028F40C5F1F4FFFE3F9830DC083369A
:101AB00031F0833771F0833509F060C022C0F8013E
:101AC000808189830E5F1F4F420171E0A72EB12CE8
:101AD00016C062E0662E712C600E711EF8018080C7
:101AE000918026FF03C06E2D70E002C06FEF7FEF84
:101AF000C4012C870E94DD0E5C0183012C852F77A9
:101B000017C052E0652E712C600E711EF8018080A6
:101B1000918026FF03C06E2D70E002C06FEF7FEF53
:101B2000C4012C870E94D20E5C012C8520688301A1
:101B300023FD20C008C080E290E0B6012C870E94FF
:101B4000F80EFA942C858F2D90E0A816B90698F31C
:101B500011C0F40127FD859127FF81914F0190E08D
:101B6000B6012C870E94F80E2C85F110FA94089487
:101B7000A108B108A114B10461F7F1C0843611F0D5
:101B8000893649F527FF08C0F8016081718182819B
:101B900093810C5F1F4F09C0F80160817181882714
:101BA00077FD8095982F0E5F1F4F4FE6B42EB2221F
:101BB00097FF09C090958095709561957F4F8F4FE5
:101BC0009F4FF0E8BF2AA2012AE030E00E94240FD4
:101BD000782E741845C0853731F43FEEB32EB2220B
:101BE0002AE030E025C099EFB92EB2228F36C1F03D
:101BF000803720F4883509F0B5C00DC0803721F05A
:101C0000883709F0AFC002C020E1B22AB4FE0BC091
:101C100084E0B82A08C0B4FE09C0E6E0BE2A06C0C7
:101C200028E030E005C020E130E002C020E132E0F1
:101C3000B7FE08C0F80160817181828193810C5FD9
:101C40001F4F07C0F8016081718180E090E00E5F56
:101C50001F4FA2010E94240F782E7418FFE7BF22A5
:101C6000B6FE0BC02EEFB2227E1438F4B4FE07C0CD
:101C7000B2FC05C08FEEB82202C0A72C01C0AE2C6A
:101C80008B2D90E0B4FE0DC0FE01E70DF11D20810B
:101C9000203319F4E9EEBE2209C0A394B2FE06C0B7
:101CA00004C086789070009709F0A3948B2C992437
:101CB000B3FC14C0B0FE0FC0AF1428F4E72CEF0C37
:101CC000EA18AF2C08C0E72C06C080E290E0B6010D
:101CD0000E94F80EA394AF14C0F304C0AF1410F424
:101CE000FA1801C0FF2484FE0FC080E390E0B60123
:101CF0000E94F80E82FE1FC081FE03C088E590E0BE
:101D000010C088E790E00DC0C401867890700097FD
:101D100091F081FC02C080E201C08BE2B7FC8DE251
:101D200090E0B6010E94F80E06C080E390E0B60194
:101D30000E94F80EEA947E14C0F37A94F201E70D43
:101D4000F11D808190E0B6010E94F80E7720A9F77E
:101D500006C080E290E0B6010E94F80EFA94FF20DF
:101D6000C1F737CEF6012681378102C02FEF3FEF52
:101D7000C9012C960FB6F894DEBF0FBECDBFCF9130
:101D8000DF911F910F91FF90EF90DF90CF90BF9068
:101D9000AF909F908F907F906F905F904F903F900B
:101DA0002F900895FC010590615070400110D8F704
:101DB000809590958E0F9F1F0895FC016150704093
:101DC00001900110D8F7809590958E0F9F1F089570
:101DD000DC01FC01672F71917723E1F7329704C092
:101DE0007C916D9370836291AE17BF07C8F308951D
:101DF0000F931F93CF93DF938C01EB018B8181FFB6
:101E00001BC082FF0DC02E813F818C819D812817D0
:101E1000390764F4E881F9810193F983E88306C006
:101E2000E885F985802F0995009731F48E819F818F
:101E300001969F838E8302C00FEF1FEFC801DF91D1
:101E4000CF911F910F910895FA01AA27283051F1DF
:101E5000203181F1E8946F936E7F6E5F7F4F8F4FDB
:101E60009F4FAF4FB1E03ED0B4E03CD0670F781F3A
:101E7000891F9A1FA11D680F791F8A1F911DA11D1F
:101E80006A0F711D811D911DA11D20D009F4689458
:101E90003F912AE0269F11243019305D3193DEF600
:101EA000CF010895462F4770405D4193B3E00FD0B6
:101EB000C9F7F6CF462F4F70405D4A3318F0495DA1
:101EC00031FD4052419302D0A9F7EACFB4E0A69584
:101ED0009795879577956795BA95C9F700976105A6
:101EE000710508959B01AC010A2E069457954795FC
:101EF00037952795BA95C9F7620F731F841F951FF1
:101F0000A01D0895AA1BBB1B51E107C0AA1FBB1F40
:101F1000A617B70710F0A61BB70B881F991F5A9575
:101F2000A9F780959095BC01CD010895F894FFCF55
:101F300074656D703D2534730054656D705F435654
:101F40003A00466C6F2025660054656D705F6564CD
:101F5000613A00456C6173612E6972205465737437
:101F60000050756C7365207769647468206D6561D5
:101F7000737572696E670050756C7365207769645C
:101F80007468206D6561737572696E673A00546597
:0A1F90006D705F6E65773A00FFFF89
:00000001FF
