:100000000C942A000C943F000C943F000C943F0089
:100010000C943F000C943F000C943F000C943F0064
:100020000C943F000C943F000C943F000C943F0054
:100030000C943F000C943F000C943F000C943F0044
:100040000C943F000C943F000C943F000C943F0034
:100050000C943F0011241FBECFE5D8E0DEBFCDBF1A
:1000600010E0A0E6B0E0E4E5FEE002C005900D92ED
:10007000A43EB107D9F70E9449010C9428070C94BB
:10008000000095E092BB88BB89EF90E00197F1F703
:1000900000C0000081E082BB89EF90E00197F1F79A
:1000A00000C00000089594E092BB88BB89EF90E007
:1000B0000197F1F700C0000012BA89EF90E00197B4
:1000C000F1F700C00000089588E30E94530081E02A
:1000D0000E94530086E00E9453008EE00E9453006D
:1000E0000895CF93DF93EC018881882331F0219626
:1000F0000E94410089918823D9F7DF91CF9108951B
:10010000CF93DF93462FC0E6D0E0BE0150E00E94BF
:100110000204CE010E947100DF91CF91089584EC1A
:1001200086B910BE089580EC87B983E886B9089532
:10013000806487B989EF90E00197F1F700C0000073
:10014000369A3699FECF24B135B1932F80E030E056
:10015000282B392B822F932F08959C01B9018827D2
:1001600077FD8095982F0E9413032AE037ED43E234
:1001700050E40E949F0320E030EC4FE754E40E94DB
:1001800078020E94E002862F972F0895AF92BF92C7
:10019000CF92DF92EF92FF920F931F93DF93CF9353
:1001A000CDB7DEB76B970FB6F894DEBF0FBECDBFED
:1001B0007C010E94AD00D82EC92E64B175B18DB7F7
:1001C0009EB708970FB6F8949EBF0FBE8DBFADB611
:1001D000BEB60894A11CB11C8E010F5F1F4FADB7B6
:1001E000BEB712961C930E93119786E690E0F50128
:1001F0009383828380E090E00E9411032AE037ED30
:1002000043E250E40E949F0320E030EC4FE754E4C7
:100210000E947802D50114966D937D938D939C93E3
:1002200017970E9423040F900F90EDB7FEB73196F9
:10023000ADB7BEB712961C930E93119783E790E06B
:1002400093838283D482C5820E942304EDB7FEB7D4
:1002500036960FB6F894FEBF0FBEEDBFC701BE01C4
:100260006E5E7F4F4AE050E00E9402048D2D9C2D6F
:100270006B960FB6F894DEBF0FBECDBFCF91DF9166
:100280001F910F91FF90EF90DF90CF90BF90AF90B4
:1002900008952F923F924F925F926F927F928F922A
:1002A0009F92AF92BF92CF92DF92EF92FF920F9305
:1002B0001F93DF93CF93CDB7DEB7C859D1400FB6A8
:1002C000F894DEBF0FBECDBF8FEF87BB81BB87E049
:1002D00084BB0E9464000E948F0080E890E00E942E
:1002E000710080EC0E94530080E990E00E94710050
:1002F00083EC99E00197F1F700C000000F2EFDE9B3
:100300004F2EF0E05F2EF02D0F2EF9EA2F2EF0E0A9
:100310003F2EF02D0F2EFCE5AF2EFFE8BF2EF2E2B0
:10032000CF2EF0E4DF2EF02D7E010894E11CF11CAD
:100330000F2EFFEC6F2EF7EF7F2EF3E98F2EFFE3EA
:100340009F2EF02D81E00E945300C2010E94710097
:1003500080EC0E94530080E00E9498000E94C6003A
:100360006AE00E9480008FE59AEEA0E08150904004
:10037000A040E1F700C000000E94640080E00E94FD
:1003800098008C01C1010E94710080EC0E94530012
:10039000B801882777FD8095982F0E9413032AE0E3
:1003A00037ED43E250E40E949F0320E030EC4FE73A
:1003B00054E40E9478020E94E002DC01CB016AE072
:1003C0000E9480008FE59AEEA0E081509040A0400E
:1003D000E1F700C000000E94640080E00E949800E5
:1003E0008C0185EB90E00E94710080EC0E9453002C
:1003F00084B195B1C8016AE00E9480008FE59AEE51
:10040000A0E081509040A040E1F700C00000ADB7EF
:10041000BEB718970FB6F894BEBF0FBEADBFEDB70D
:10042000FEB7319689E090E08C0F9D1F12969C9349
:100430008E931197A1ECB0E0B383A283A482B5821E
:10044000C682D7820E94230400D000D0EDB7FEB749
:10045000319681ED90E08C0F9D1FADB7BEB712961F
:100460009C938E931197A4ECB0E0B383A283158282
:100470001482178216821186108682E090E093879C
:1004800082870E9423040F900F900F900F90EDB77A
:10049000FEB73196ADB7BEB71296FC92EE921197A9
:1004A00080ED90E093838283648275828682978256
:1004B0000E942304ADB7BEB718960FB6F894BEBF1E
:1004C0000FBEADBF0E94640089ED90E00E947100F4
:1004D00080EC0E945300C7010E9471008FE59AEEE4
:1004E000A0E081509040A040E1F700C000002ACF7A
:1004F0000CD0EBC0E3D040F0DAD030F021F45F3F15
:1005000019F0CCC0511115C1CFC0F0D098F3992388
:10051000C9F35523B1F3951B550BBB27AA276217C7
:100520007307840738F09F5F5F4F220F331F441F0C
:10053000AA1FA9F333D00E2E3AF0E0E830D0915044
:100540005040E695001CCAF729D0FE2F27D0660F31
:10055000771F881FBB1F261737074807AB07B0E870
:1005600009F0BB0B802DBF01FF2793585F4F2AF086
:100570009E3F510568F092C0DCC05F3FECF3983EAF
:10058000DCF3869577956795B795F7959F5FC9F7E3
:10059000880F911D9695879597F90895E1E0660F6C
:1005A000771F881FBB1F621773078407BA0720F0E5
:1005B000621B730B840BBA0BEE1F88F7E09508954E
:1005C00004D06894B111B5C0089598D088F09F57B1
:1005D00090F0B92F9927B751A0F0D1F0660F771F8F
:1005E000881F991F1AF0BA95C9F712C0B13081F06F
:1005F0009FD0B1E008959CC0672F782F8827B85FFF
:1006000039F0B93FCCF3869577956795B395D9F7CF
:100610003EF490958095709561957F4F8F4F9F4FD9
:100620000895E89409C097FB3EF4909580957095E5
:1006300061957F4F8F4F9F4F9923A9F0F92F96E92E
:10064000BB279395F695879577956795B795F111A3
:10065000F8CFFAF4BB0F11F460FF1BC06F5F7F4F40
:100660008F4F9F4F16C0882311F096E911C0772352
:1006700021F09EE8872F762F05C0662371F096E85B
:10068000862F70E060E02AF09A95660F771F881F2A
:10069000DAF7880F9695879597F9089597F99F67E8
:1006A00080E870E060E008959FEF80EC08950024FA
:1006B0000A941616170618060906089500240A94C7
:1006C00012161306140605060895092E0394000C4D
:1006D00011F4882352F0BB0F40F4BF2B11F460FFDC
:1006E00004C06F5F7F4F8F4F9F4F089557FD905805
:1006F000440F551F59F05F3F71F04795880F97FBE6
:10070000991F61F09F3F79F087950895121613069F
:100710001406551FF2CF4695F1DF08C016161706CE
:100720001806991FF1CF8695710561050894089503
:10073000E894BB2766277727CB0197F908950BD05C
:10074000C4CFB5DF28F0BADF18F0952309F0A6CFA3
:10075000ABCF1124EECFCADFA0F3959FD1F3950F55
:1007600050E0551F629FF001729FBB27F00DB11D35
:10077000639FAA27F00DB11DAA1F649F6627B00DC5
:10078000A11D661F829F2227B00DA11D621F739FAE
:10079000B00DA11D621F839FA00D611D221F749FBC
:1007A0003327A00D611D231F849F600D211D822F03
:1007B000762F6A2F11249F5750408AF0E1F088234A
:1007C0004AF0EE0FFF1FBB1F661F771F881F915057
:1007D0005040A9F79E3F510570F060CFAACF5F3F10
:1007E000ECF3983EDCF3869577956795B795F7958A
:1007F000E7959F5FC1F7FE2B880F911D9695879512
:1008000097F90895FB019F01E8944230C4F0453206
:10081000B4F44A3029F497FB1EF4909581959F4FCC
:10082000642F77270E94DD06805D8A330CF0895D96
:100830008193CB010097A1F716F45DE251931082EA
:10084000C9010C944306AEE0B0E0E9E2F4E00C9498
:10085000FF060D891E8986E08C831A8309838FEF3A
:100860009FE79E838D839E01275E3F4FCE010196B9
:100870006F89788DA9010E944604EF81F885E00F09
:10088000F11F10822E96E4E00C941B07ACE0B0E060
:10089000ECE4F4E00C94F1066C011B018A01FC010C
:1008A00017821682838181FFD1C12E010894411CD9
:1008B000511CF6019381F10193FD859193FF819184
:1008C0001F01882309F4BEC1853239F493FD859157
:1008D00093FF81911F01853229F490E0B6010E94B7
:1008E0005306E7CFEE24FF2420E02032B0F48B3211
:1008F00069F08C3228F4803251F0833271F40BC0ED
:100900008D3239F0803349F421602CC0226024609C
:1009100029C0286027C0206125C027FD2CC0382FA2
:1009200030533A3098F426FF08C08E2D880FE82EF9
:10093000EE0CEE0CE80EE30E15C08F2D880FF82E8E
:10094000FF0CFF0CF80EF30E20620CC08E3221F467
:1009500026FD78C1206406C08C3611F4206802C0E0
:10096000883649F4F10193FD859193FF81911F0130
:10097000882309F0BACF982F9554933018F09052ED
:10098000933028F40C5F1F4FFFE3F9830DC08336CB
:1009900031F0833771F0833509F060C022C0F8016F
:1009A000808189830E5F1F4F420171E0A72EB12C19
:1009B00016C062E0662E712C600E711EF8018080F8
:1009C000918026FF03C06E2D70E002C06FEF7FEFB5
:1009D000C4012C870E9438065C0183012C852F7787
:1009E00017C052E0652E712C600E711EF8018080D8
:1009F000918026FF03C06E2D70E002C06FEF7FEF85
:100A0000C4012C870E942D065C012C85206883017F
:100A100023FD20C008C080E290E0B6012C870E9430
:100A20005306FA942C858F2D90E0A816B90698F3FA
:100A300011C0F40127FD859127FF81914F0190E0BE
:100A4000B6012C870E9453062C85F110FA94089465
:100A5000A108B108A114B10461F7F1C0843611F006
:100A6000893649F527FF08C0F801608171818281CC
:100A700093810C5F1F4F09C0F80160817181882745
:100A800077FD8095982F0E5F1F4F4FE6B42EB22250
:100A900097FF09C090958095709561957F4F8F4F16
:100AA0009F4FF0E8BF2AA2012AE030E00E947F06B3
:100AB000782E741845C0853731F43FEEB32EB2223C
:100AC0002AE030E025C099EFB92EB2228F36C1F06E
:100AD000803720F4883509F0B5C00DC0803721F08B
:100AE000883709F0AFC002C020E1B22AB4FE0BC0C3
:100AF00084E0B82A08C0B4FE09C0E6E0BE2A06C0F9
:100B000028E030E005C020E130E002C020E132E022
:100B1000B7FE08C0F80160817181828193810C5F0A
:100B20001F4F07C0F8016081718180E090E00E5F87
:100B30001F4FA2010E947F06782E7418FFE7BF2284
:100B4000B6FE0BC02EEFB2227E1438F4B4FE07C0FE
:100B5000B2FC05C08FEEB82202C0A72C01C0AE2C9B
:100B60008B2D90E0B4FE0DC0FE01E70DF11D20813C
:100B7000203319F4E9EEBE2209C0A394B2FE06C0E8
:100B800004C086789070009709F0A3948B2C992468
:100B9000B3FC14C0B0FE0FC0AF1428F4E72CEF0C68
:100BA000EA18AF2C08C0E72C06C080E290E0B6013E
:100BB0000E945306A394AF14C0F304C0AF1410F402
:100BC000FA1801C0FF2484FE0FC080E390E0B60154
:100BD0000E94530682FE1FC081FE03C088E590E09C
:100BE00010C088E790E00DC0C4018678907000972F
:100BF00091F081FC02C080E201C08BE2B7FC8DE283
:100C000090E0B6010E94530606C080E390E0B60172
:100C10000E945306EA947E14C0F37A94F201E70D21
:100C2000F11D808190E0B6010E9453067720A9F75C
:100C300006C080E290E0B6010E945306FA94FF20BD
:100C4000C1F737CEF6012681378102C02FEF3FEF83
:100C5000C9012C96E2E10C940D07FC01059061504E
:100C600070400110D8F7809590958E0F9F1F0895C2
:100C7000FC016150704001900110D8F7809590956B
:100C80008E0F9F1F0895DC01FC01672F7191772360
:100C9000E1F7329704C07C916D9370836291AE1737
:100CA000BF07C8F308950F931F93CF93DF938C0171
:100CB000EB018B8181FF1BC082FF0DC02E813F8124
:100CC0008C819D812817390764F4E881F9810193AB
:100CD000F983E88306C0E885F985802F0995009798
:100CE00031F48E819F8101969F838E8302C00FEF26
:100CF0001FEFC801DF91CF911F910F910895FA0165
:100D0000AA27283051F1203181F1E8946F936E7F4A
:100D10006E5F7F4F8F4F9F4FAF4FB1E03ED0B4E03B
:100D20003CD0670F781F891F9A1FA11D680F791F7C
:100D30008A1F911DA11D6A0F711D811D911DA11D8D
:100D400020D009F468943F912AE0269F112430199D
:100D5000305D3193DEF6CF010895462F4770405D38
:100D60004193B3E00FD0C9F7F6CF462F4F70405DE7
:100D70004A3318F0495D31FD4052419302D0A9F742
:100D8000EACFB4E0A6959795879577956795BA953C
:100D9000C9F700976105710508959B01AC010A2E02
:100DA00006945795479537952795BA95C9F7620FD9
:100DB000731F841F951FA01D0895AA1BBB1B51E123
:100DC00007C0AA1FBB1FA617B70710F0A61BB70BBB
:100DD000881F991F5A95A9F780959095BC01CD0160
:100DE00008952F923F924F925F926F927F928F92CF
:100DF0009F92AF92BF92CF92DF92EF92FF920F93AA
:100E00001F93CF93DF93CDB7DEB7CA1BDB0B0FB6B3
:100E1000F894DEBF0FBECDBF09942A883988488870
:100E20005F846E847D848C849B84AA84B984C88406
:100E3000DF80EE80FD800C811B81AA81B981CE0FFD
:100E4000D11D0FB6F894DEBF0FBECDBFED010895E2
:040E5000F894FFCF44
:100E5400303030303000566F6C74616765203D204F
:100E6400256600566F6C74616765203D2025690016
:100E740041424C616220536F6C7574696F6E7300EC
:100E84007777772E61626C61622E696E004144430C
:100E94002056616C7565313A004144432056616CBB
:100EA4007565323A004144432056616C7565333AA6
:100EB400002566004C313A256425642564256400C8
:100EC400666C6F61743D25660041444320666C6F17
:040ED40061743A000B
:00000001FF
