:100000000C942A000C943F000C943F000C943F0089
:100010000C943F000C943F000C943F000C943F0064
:100020000C943F000C943F000C943F000C943F0054
:100030000C943F000C943F000C943F000C943F0044
:100040000C943F000C943F000C943F000C943F0034
:100050000C943F0011241FBECFE5D8E0DEBFCDBF1A
:1000600010E0A0E6B0E0E6E9F2E002C005900D92F3
:10007000A039B107D9F70E949D000C9449010C9456
:1000800000009298909A88BB929A8AEF90E0FC01C7
:100090003197F1F792980197F1F7089592B39A7F0B
:1000A00092BB88BB929A8AEF90E0FC013197F1F7FE
:1000B00092980197F1F7089588E30E944E0081E03D
:1000C0000E944E0086E00E944E008EE00E944E008C
:1000D0000895CF93DF93EC0103C021960E94410065
:1000E00088818823D1F7DF91CF91089584EE86B976
:1000F00010BE0895806487B984EC99E00197F1F708
:1001000024B145B1942F80E030E0282B392BC90170
:100110000895CF93DF93462F60E670E050E00E9491
:100120000401C0E6D0E003C021960E94410088810E
:100130008823D1F7DF91CF910895DF92EF92FF925C
:100140000F931F93CF93DF938FEF87BB87E081BB24
:100150000E945C0084EE86B910BE86E690E00E94A4
:10016000690080EC0E944E0086E790E00E946900E2
:1001700088E893E129E130E0F9013197F1F701973F
:10018000D9F788E893E129E130E0F9013197F1F7F7
:100190000197D9F788E893E129E130E0F901319737
:1001A000F1F70197D9F788E893E129E130E0F90107
:1001B0003197F1F70197D9F790E4D92E84ECE82E26
:1001C00089E0F82E09E110E081E00E944E0083E80A
:1001D00090E00E94690080EC0E944E00D7B8C701F1
:1001E0000197F1F784B125B1D22FC0E090E08C2BBC
:1001F0009D2B6AE00E94890088E893E1F80131971D
:10020000F1F70197D9F7E0CFFB019F01E894423065
:10021000C4F04532B4F44A3029F497FB1EF49095AB
:1002200081959F4F642F77270E943501805D8A3327
:100230000CF0895D8193CB010097A1F716F45DE284
:1002400051931082C9010C942501DC01FC01672F38
:1002500071917723E1F7329704C07C916D9370839D
:100260006291AE17BF07C8F30895AA1BBB1B51E1EB
:1002700007C0AA1FBB1FA617B70710F0A61BB70B16
:10028000881F991F5A95A9F780959095BC01CD01BB
:060290000895F894FFCF71
:1002960030303030300041424C616220536F6C7513
:1002A60074696F6E73007777772E61626C61622E68
:1002B600696E004144432056616C75653A2D000015
:00000001FF
